:100000000C9436000C94100E0C94100E0C94100EE0
:100010000C94100E0C94100E0C94100E0C94780B83
:100020000C94100E0C944B0B0C94100E0C94100EA0
:100030000C94100E0C94100E0C94100E0C94100EC8
:100040000C94100E0C94100E0C94100E0C94100EB8
:100050000C94100E00600496800496049A001C28EC
:10006000049A04A08004A004A1001C2C11241FBE2B
:10007000CFE5D8E0DEBFCDBFE4E5F0E040E017C05B
:10008000B591A59135912591059107FD0CC09591EC
:100090008591EF01F92FE82F05900D92A217B30774
:1000A000D9F7FE0104C01D92A217B307E1F7EC36A1
:1000B000F40731F70E94B7050C945E00F894FFCF67
:1000C00000002110422063308440A550C660E770D4
:1000D000088129914AA16BB18CC1ADD1CEE1EFF17C
:1000E0003112100273325222B5529442F772D66224
:1000F000399318837BB35AA3BDD39CC3FFF3DEE3CC
:100100006224433420040114E664C774A444855473
:100110006AA54BB528850995EEE5CFF5ACC58DD51B
:100120005336722611163006D776F6669556B446C3
:100130005BB77AA719973887DFF7FEE79DD7BCC76B
:10014000C448E5588668A778400861180228233813
:10015000CCC9EDD98EE9AFF9488969990AA92BB9BB
:10016000F55AD44AB77A966A711A500A333A122A63
:10017000FDDBDCCBBFFB9EEB799B588B3BBB1AAB0B
:10018000A66C877CE44CC55C222C033C600C411CB3
:10019000AEED8FFDECCDCDDD2AAD0BBD688D499D5B
:1001A000977EB66ED55EF44E133E322E511E700E03
:1001B0009FFFBEEFDDDFFCCF1BBF3AAF599F788FAB
:1001C0008891A981CAB1EBA10CD12DC14EF16FE18B
:1001D0008010A100C230E3200450254046706760C3
:1001E000B9839893FBA3DAB33DC31CD37FE35EF3DB
:1001F000B1029012F322D232354214527762567213
:10020000EAB5CBA5A89589856EF54FE52CD50DC52A
:10021000E234C324A0148104667447642454054462
:10022000DBA7FAB79987B8975FE77EF71DC73CD77A
:10023000D326F2369106B0165766767615463456B2
:100240004CD96DC90EF92FE9C899E9898AB9ABA9CA
:100250004458654806782768C018E1088238A32802
:100260007DCB5CDB3FEB1EFBF98BD89BBBAB9ABB1A
:10027000754A545A376A167AF10AD01AB32A923A52
:100280002EFD0FED6CDD4DCDAABD8BADE89DC98D6A
:10029000267C076C645C454CA23C832CE01CC10CA2
:1002A0001FEF3EFF5DCF7CDF9BAFBABFD98FF89FBA
:1002B000176E367E554E745E932EB23ED10EF01EF2
:1002C0007465737420646520646C386D6367206A9C
:1002D0006E36386863203530336D2061736C2031A1
:1002E000354320526567656E207077722031572044
:1002F000616E7420766572746963616C206E722E13
:10030000256400444C384D43470051535400686104
:100310006C6C6F2031323334207465737420353641
:100320003738206162636420646520646C386D63D3
:0803300067206E722E256400A7
:100338002F923F924F926F927F928F929F92AF929D
:10034800BF92CF92DF92EF92FF920F931F93CF93BA
:10035800DF93CDB7DEB762970FB6F894DEBF0FBE56
:10036800CDBF6C013A01862E7901FC0110861782F7
:10037800848181FFE7C19E012F5F3F4F3D872C8716
:10038800C901A0E8888B998BAA8B9FE3992EF3016A
:10039800849187FC8081882309F4D0C1482D93017A
:1003A8002F5F3F4F4F4F853219F03901842E0AC015
:1003B800F901849147FD808192E0690E711C811CCE
:1003C800853229F4B60190E00E941F0AE0CFB12CD3
:1003D80000E010E01032A0F48B3269F030F4803283
:1003E80059F0833269F410612CC08D3239F08033B2
:1003F80039F4116026C01260146023C0186021C04F
:1004080017FD29C090ED980F9A3078F416FF06C0B2
:10041800AAE0BA9E900D1124B92E13C0EAE00E9FEF
:10042800900D1124092F10620CC08E3221F416FD94
:1004380085C1106406C08C3611F4106802C0883675
:1004480051F4F301849187FC8081FFEF6F1A7F0AD2
:100458008F0A8111BFCF982F9F7D9554933028F430
:1004680024E0E20EF11C99820FC0833631F0833705
:1004780091F0833509F063C027C0F7018081898333
:1004880097012E5F3F4F7901288839884A88AA2426
:10049800A394B12C17C0A7014D5F5F4F5F874E87AC
:1004A800F70120803180428016FF03C04B2D50E0B9
:1004B80002C04FEF5FEF842DB1010E949E0C5C01DA
:1004C800EE84FF841F7718C097012D5F3F4F3F8749
:1004D8002E87F70120803180428016FF03C04B2D04
:1004E80050E002C04FEF5FEF842DB1010E949E0CD7
:1004F8005C011068EE84FF8413FD1DC0802F90E01E
:10050800A816B906C0F4B60180E290E00E941F0A5E
:100518000150F4CFF101849147FC8081FFEF2F1A3D
:100528003F0A4F0AB60190E00E941F0A01110150CC
:1005380021E0A21AB108A114B10461F7F5C084360C
:1005480011F0893671F5F70117FF08C060817181D4
:100558008281938197012C5F3F4F09C0608171812F
:10056800072E000C880B990B97012E5F3F4F7901DE
:100578001F76312E97FF0AC09095809570956195EA
:100588007F4F8F4F9F4F312F3068332E2AE030E056
:10059800AE014F5F5F4F0E948808482E4C85441A71
:1005A8004AC0853729F41F7EA12E2AE030E025C0F5
:1005B800512F597FA52E8F36C1F018F4883579F060
:1005C800BDC0803719F0883721F0B8C0852F806109
:1005D800A82EA4FE0DC09A2D9460A92E09C014FF60
:1005E8000AC0A52FA660AA2E06C028E030E005C0E4
:1005F80020E130E002C020E132E0F701A7FE08C0A8
:100608006081718182819381A7014C5F5F4F07C030
:100618006081718180E090E0A7014E5F5F4F7A01B1
:10062800AE014F5F5F4F0E948808482E5C85451ACF
:100638008A2D8F77382E36FE0DC0932D9E7FA92EDA
:100648004B1458F434FE0BC032FC09C0A32DAE7E07
:10065800AA2E05C0142DA32C03C0142D01C01B2DD8
:10066800A4FE0EC0FE01E40DF11D8081803321F44B
:10067800EA2DE97EAE2E08C0A2FE05C01E5F04C0AA
:100688008A2D867809F01F5FA3FC11C0A0FE06C062
:10069800101788F4040DB02EB11A0EC0101760F4AC
:1006A800B60180E290E00E941F0A1F5FF7CF101783
:1006B80018F4011B02C0B42C00E0A4FE10C0B6015F
:1006C80080E390E00E941F0AA2FE17C0A1FC03C0AD
:1006D80088E790E002C088E590E0B6010CC08A2D5A
:1006E800867859F0A1FE02C08BE201C080E2A7FC27
:1006F8008DE2B60190E00E941F0A4B1438F4B6014F
:1007080080E390E00E941F0ABA94F7CF4A94E1E090
:10071800F0E0EC0FFD1FE40DF11D8081B60190E0C3
:100728000E941F0A4110F2CF002309F430CEB6010F
:1007380080E290E00E941F0A0150F6CFF6018781FF
:10074800908502C08FEF9FEF62960FB6F894DEBFD8
:100758000FBECDBFDF91CF911F910F91FF90EF900A
:10076800DF90CF90BF90AF909F908F907F906F90C9
:080778004F903F902F9008956F
:100780004F925F926F928F929F92AF92BF92CF9251
:10079000DF92EF92FF920F931F93CF93DF93CDB72A
:1007A000DEB7D2500FB6F894DEBF0FBECDBF2B011F
:1007B000682E5A01790100E010E0812C912C1BC0B9
:1007C00064014FEFC41AD40AA62DC201800F911FF5
:1007D000A11D17FDAA95FC018491A7FD80810E94AF
:1007E000830CE1E0F0E0EC0FFD1FE80DF91D8083C4
:1007F0000F5F1F4F46010A151B0514F38E010F5F93
:100800001F4FB80180E8A4010E945B0A94012F5F8A
:100810003F4FF801E80DF91D908392E0890E911C7D
:10082000D801A20FB31F8C93F7011082118212829C
:100830001382148215821682178210868EE78187B2
:100840008287838784878587868700E010E0B12CC4
:1008500027E030E060E070E0AFE0B0E04DC0E1E004
:10086000F0E0EC0FFD1FE00FF11F8081E7E0F0E00A
:100870006F01C41AD50A90E002C095958795CA9475
:10088000E2F780FF0CC081E090E0022E02C0880FEA
:10089000991F0A94E2F7B82A6F5F7F4F02C060E0A9
:1008A00070E0215031094AF4C7018A0F9B1FFC01F7
:1008B000B0821196B12C27E030E06530710589F4E3
:1008C0002150310962F4C7018A0F9B1FFC01B082DD
:1008D0001196B12C27E030E060E070E002C060E0EB
:1008E00070E04F5F5F4F02C040E050E0483051057C
:1008F0000CF4B5CF0F5F1F4F08151905ACF3273067
:10090000310501F12F5F3F4F8EE790E0AC0102C04F
:10091000440F551F2A95E2F79A018B2D90E0982FEE
:100920008827282B392BAD014F5F5F4FC7018A0FF6
:100930009B1FFC013083CD010296FA01EE0DFF1DD5
:10094000208306C0CD010196AE0DBF1D2EE72C936E
:10095000DE5F0FB6F894DEBF0FBECDBFDF91CF9143
:100960001F910F91FF90EF90DF90CF90BF90AF90CD
:0C0970009F908F906F905F904F900895C3
:10097C002F923F924F925F926F927F928F929F92A3
:10098C00AF92BF92CF92DF92EF92FF920F931F9391
:10099C00CF93DF93CDB7DEB7E0970FB6F894DEBFF9
:1009AC000FBECDBF3A2C4B2C5C2C6D2C7E2C8F2C7F
:1009BC00902E212E0CE10E94060D6894AA24A6F814
:1009CC000F2EF8E7BF2EF02D0F2EFDE7CF2EF02DBA
:1009DC00DD24D394E12CF12C00E010E00E949F0D5B
:1009EC0029833A834B835C836D837E838F839887C3
:1009FC00232D342D452D562D672D782D892D922D97
:100A0C000CE10E94060D00E00E949F0D29873A8799
:100A1C004B875C876D877E878F87988B99818A81BE
:100A2C002B812C812D812E812F8128858F738064C1
:100A3C00998B8A8B1B8A1C8A1D8A1E8A1F8A188E88
:100A4C0029813A814B815C816D817E818F81988572
:100A5C000EE00E944B0C3F733064298F3A8F1B8E33
:100A6C001C8E1D8E1E8E1F8E18A299858A852B8535
:100A7C002C852D852E852F8528898F73806899A3C9
:100A8C008AA31BA21CA21DA21EA21FA218A6298506
:100A9C003A854B855C856D857E858F8598890E940E
:100AAC004B0C3F73306829A73AA71BA61CA61DA6A2
:100ABC001EA61FA618AAE6E8F4E080E091E2918356
:100ACC00808339892A898B898C898D898E898F8934
:100ADC00888D32832383398D2A8D8B8D8C8D8D8DD2
:100AEC008E8D8F8D88A13483258339A12AA18BA16A
:100AFC008CA18DA18EA18FA188A53683278339A5C2
:100B0C002AA58BA58CA58DA58EA58FA588A9308728
:100B1C00218780E090EC9387828780E090EE958728
:100B2C00848780E090E29787868788E080938104B1
:100B3C00E0960FB6F894DEBF0FBECDBFDF91CF911C
:100B4C001F910F91FF90EF90DF90CF90BF90AF90DF
:100B5C009F908F907F906F905F904F903F902F90D1
:020B6C000895EA
:100B6E009FE088E10FB6F894A89581BD0FBE91BDA8
:100B7E0081B3806181BB82B3806182BB81B38062AD
:100B8E0081BB81B3806481BBF89460E070E086E93C
:100B9E0094E40E949F0B0E94ED0C0F2EF8E9AF2EED
:100BAE00F02D6894BB24B3F8C12CD12CE12CF12C80
:100BBE0000E010E020EB34E040E050E060E070E058
:100BCE0080E090E00E94BE040E94CA0D02C00E9406
:100BDE00FD0D0E94C00D8111FACFC0E0D0E0DF9371
:100BEE00CF9380EC92E0A0E0AF939F938F930F2E64
:100BFE00F0EFFF2EF02DFF9203E00F931F920F2EBA
:100C0E00F3E06F2EF3E07F2EF0E08F2EF02D8F921B
:100C1E007F926F921F920F2EFAE0CF2EF3E0DF2E0F
:100C2E00F0E0EF2EF02DEF92DF92CF9211E01F93B6
:100C3E000E94E608CE0101969F9322968F938EE036
:100C4E0093E0A0E0AF939F938F93FF920F931F9229
:100C5E008F927F926F921F92EF92DF92CF921F939D
:100C6E000E94E6088DB79EB780960FB6F8949EBF89
:060C7E000FBE8DBFB4CFD4
:100C84006F927F928F92CF92DF92EF92FF920F93A7
:100C9400CF93DF9361157105810509F45FC0411598
:100CA400510509F45EC0EA013B01882E9B01482FDF
:100CB4002F5F3F4F4F4FA82FCB010896A11DFC017A
:100CC4000491A7FD0081E12CF12CBE0181E00E947A
:100CD4008E09482D9301275F3F4F4F4FA82DC30125
:100CE4004096A11DFC010491A7FD0081BE01695F2E
:100CF4007F4FEE24E394F12C80E00E948E09A82D0E
:100D0400C3014196A11DFC018491A7FD80818E87BA
:100D1400A82DC3014296A11DFC018491A7FD8081E9
:100D24008F87E82C630183E1C80ED11CE11C8E2D52
:100D3400B6010E944F0D9C016E2DA601CE01409676
:100D44000E941F0D83E1680E81E0781E811CF3016F
:100D5400582D0E94D30DCB01409605C080E090E051
:100D640002C080E090E0DF91CF910F91FF90EF906F
:0C0D7400DF90CF908F907F906F900895DB
:100D800088B38B7F88BB88B38E7F88BB88B38D7F09
:100D900088BB88B3826088BB88B38D7F88BB88B3EB
:100DA000826088BB88B38D7F88BB88B3826088BB34
:100DB00088B38D7F88BB88B3826088BB88B381602D
:100DC00088BB88B38D7F88BB88B3826088BB88B3BB
:100DD0008E7F88BB88B38D7F88BB88B3826088BBD9
:100DE00088B38D7F88BB88B3826088BB88B38D7FD2
:100DF00088BB88B3826088BB88B38D7F88BB88B38B
:100E0000826088BB88B38D7F88BB88B3826088BBD3
:100E100088B38D7F88BB88B3826088BB88B38D7FA1
:100E200088BB88B3826088BB88B38D7F88BB88B35A
:100E3000826088BB88B38D7F88BB88B3826088BBA3
:100E400088B38D7F88BB88B3826088BB88B38D7F71
:100E500088BB88B3826088BB88B3846088BB82B358
:100E60008F7D82BB82B3806482BB8CE397E09093DA
:080E7000970480939604089595
:100E780088B38B7F88BB88B38E7F88BB88B38D7F10
:100E880088BB88B3826088BB88B38D7F88BB88B3F2
:100E9800826088BB88B38D7F88BB88B3826088BB3B
:100EA80088B38D7F88BB88B3826088BB88B38D7F09
:100EB80088BB88B3826088BB88B38D7F88BB88B3C2
:100EC800826088BB88B38D7F88BB88B3826088BB0B
:100ED80088B38D7F88BB88B3826088BB88B38D7FD9
:100EE80088BB88B3826088BB88B38D7F88BB88B392
:100EF800826088BB88B38D7F88BB88B3826088BBDB
:100F080088B38D7F88BB88B3826088BB88B38D7FA8
:100F180088BB88B3826088BB88B38D7F88BB88B361
:100F2800826088BB88B38D7F88BB88B3826088BBAA
:100F380088B38D7F88BB88B3826088BB88B38460A0
:100F480088BB82B38F7B82BB82B3806282BB80EC1A
:0C0F580096E0909397048093960408950F
:100F640010C00E94E90D58F00E94E20D40F029F4EF
:100F74005F3F29F00C94030E51110C94F10D0C9465
:100F84000D0E0E94090C68F39923B1F3552391F3D4
:100F9400951B550BBB27AA2762177307840738F0E4
:100FA4009F5F5F4F220F331F441FAA1FA9F335D041
:100FB4000E2E3AF0E0E832D091505040E695001CF5
:100FC400CAF72BD0FE2F29D0660F771F881FBB1FAF
:100FD400261737074807AB07B0E809F0BB0B802D8D
:100FE400BF01FF2793585F4F3AF09E3F510578F0B9
:100FF4000C94030E0C94F10D5F3FE4F3983ED4F38C
:10100400869577956795B795F7959F5FC9F7880F8C
:10101400911D9695879597F90895E1E0660F771FDE
:10102400881FBB1F621773078407BA0720F0621B6F
:0E103400730B840BBA0BEE1F88F7E09508953E
:1010420011C00E94E20D38F00E94E90D20F039F43F
:101052009F3F19F426F40C940D0E0EF4E095E7FB75
:101062000C94030EE92F0E94090C58F3BA17620779
:1010720073078407950720F079F4A6F50C94F00D18
:101082000EF4E0950B2EBA2FA02D0B01B9019001A1
:101092000C01CA01A0011124FF27591B99F0593FE5
:1010A20050F4503E68F11A16F040A22F232F342F2D
:1010B2004427585FF3CF469537952795A795F0407B
:1010C2005395C9F77EF41F16BA0B620B730B840B90
:1010D200BAF09150A1F0FF0FBB1F661F771F881F48
:1010E200C2F70EC0BA0F621F731F841F48F48795A0
:1010F20077956795B795F7959E3F08F0B0CF939592
:0E110200880F08F09927EE0F979587950895AE
:10111000FA01AA27283051F1203181F1E8946F9328
:101120006E7F6E5F7F4F8F4F9F4FAF4FB1E03ED0CE
:10113000B4E03CD0670F781F891F9A1FA11D680F6C
:10114000791F8A1F911DA11D6A0F711D811D911D9F
:10115000A11D20D009F468943F912AE0269F112414
:101160003019305D3193DEF6CF010895462F477078
:10117000405D4193B3E00FD0C9F7F6CF462F4F70D3
:10118000405D4A3318F0495D31FD4052419302D031
:10119000A9F7EACFB4E0A6959795879577956795D7
:1011A000BA95C9F700976105710508959B01AC01D7
:1011B0000A2E06945795479537952795BA95C9F7FE
:0C11C000620F731F841F951FA01D08956F
:1011CC00EF92FF920F931F93CF93DF93CDB7DEB7C0
:1011DC000F2EFBE6EF2EF3E0FF2EF02D8985F701A5
:1011EC00808326E030E04A855B856C858CE693E055
:1011FC000E94E60BF701178226E030E04E855F85F2
:10120C00688984E793E00E94E60BF70117868D85C9
:10121C0080878989808B8A89818B8B89828B8E01CF
:10122C00095E1F4F2C893D894E8960E071E08EE785
:10123C0093E00E94F00A6EE773E080E80E944F0D85
:10124C0090937F0480937E04B70180E849E651E0D7
:10125C000E94DA09482F69E671E080E80E94910A41
:0E126C00DF91CF911F910F91FF90EF900895A9
:10127A0088249924F401E401B0E49F93AA279A15DB
:10128A008B049C04ED05FE05CF05D007A10798F451
:10129A00AD2FDC2FCF2FFE2FE92D982C892E982FDA
:1012AA00872F762F652F542F432F322F2227B8509E
:1012BA0031F7BF9127C01B2EBF91BB27220F331FC7
:1012CA00441F551F661F771F881F991F881C991C6A
:1012DA00EE1FFF1FCC1FDD1FAA1FBB1F8A149B0412
:1012EA00EC05FD05CE05DF05A007B10748F08A1811
:1012FA009B08EC09FD09CE09DF09A00BB10B21609F
:10130A001A94E1F62EF49401AF01BE01CD01000C4E
:02131A00089534
:10131C006F927F928F92CF92DF92EF92FF920F9308
:10132C003901842ED70140E050E007C0FB01E40FE7
:10133C00F51F990F90834F5F5F4F46305105ACF40A
:10134C00E82C6301C40ED51EE11C57FDEA94F6018E
:10135C009491E7FC90819111E9CF07C0FB01E40F58
:10136C00F51F90E490834F5F5F4F46305105B4F307
:10137C000F70202F30E0220F331F91E0AB2B09F4BC
:10138C0090E02066292B882311F090E801C090E0B2
:10139C00292BFB0126830F91FF90EF90DF90CF90CC
:0813AC008F907F906F9008956F
:1013B400CF92DF92EF920F931F93CF93DF93CDB72A
:1013C400DEB7D2500FB6F894DEBF0FBECDBF6115A5
:1013D40071058105E1F041155105E1F08A01AE0185
:1013E4004F5F5F4F0E9442060097B9F0BE016F5FE6
:1013F4007F4F6B0120E8E22E9801AC018E2DB601DF
:101404000E94C003F801FE5F9183808308C080E0DE
:1014140090E005C080E090E002C080E090E0DE5FF4
:101424000FB6F894DEBF0FBECDBFDF91CF911F91F1
:0A1434000F91EF90DF90CF90089524
:10143E000F931F93CF93DF93FB01248121FD03C0F4
:10144E008FEF9FEF2CC022FF16C04781508525815C
:10145E0036814217530744F4A081B1819D012F5F5D
:10146E003F4F318320838C93278130852F5F3F4FF1
:10147E003087278314C08B01EC01FB010184F285B8
:10148E00E02D0995892BE1F6D80117968D919C9147
:10149E001897019618969C938E931797CE01DF910D
:0814AE00CF911F910F910895E9
:1014B600CF92DF92EF92CF93DF936B01E82EEA0192
:1014C600A0E0B0E08FEF9FEF1EC04E2D96012A0FD1
:1014D6003B1F411DB7FD4A95F901249147FD208127
:1014E600292730E0220F331F032E000C440B205413
:1014F6003F4F4F4FF901542F0E94D30D982F882745
:10150600862797271196AC17BD07F8F28095909518
:0C151600DF91CF91EF90DF90CF9008950F
:10152200CF92DF92EF926B01E82E80E00FC0282F5E
:1015320030E0F6019491E7FC9081F901E759FF4F01
:1015420090838F5F9FEFC91AD90AE90A841778F34B
:10155200E82FF0E0E759FF4F1082109260008EE111
:101562009BE09093640080936300409366007894BC
:101572000E94AB0D8111FCCFEF90DF90CF900895C8
:101582000E94110C88F09F5798F0B92F9927B751F4
:10159200B0F0E1F0660F771F881F991F1AF0BA9515
:1015A200C9F714C0B13091F00E94F00DB1E0089576
:1015B2000C94F00D672F782F8827B85F39F0B93F68
:1015C200CCF3869577956795B395D9F73EF49095C8
:0E15D2008095709561957F4F8F4F9F4F0895C4
:1015E000AFE0B0E0E6EFFAE00C94730C7C01A42FBE
:1015F000C901980146E04D83FA82E98277FF02C073
:1016000060E070E8615071097F836E83AC016A2FDE
:10161000CE0101960E949C014E815F8157FD0AC058
:1016200028853985421753070CF49A01F701E20F18
:0C163000F31F10822F96E6E00C94C50C0E
:10163C0080916600811107C082E19EE09093640066
:10164C00809363000895815080936600E091600060
:10165C0081E08E0F80936000F0E0E759FF4F8081AE
:10166C0080936100882314F00E94F70D8091610033
:10167C00880F8093610081E08093680084ED9CE08A
:0A168C0090936400809363000895BA
:101696001F920F920FB60F9211242F933F934F93E1
:1016A6005F936F937F938F939F93AF93BF93EF93C4
:1016B600FF9380919E0490919F049DBD8CBDE09107
:1016C6006300F09164000995FF91EF91BF91AF918E
:1016D6009F918F917F916F915F914F913F912F9144
:0A16E6000F900FBE0F901F90189593
:1016F0001F920F920FB60F9211242F933F934F9387
:101700005F936F937F938F939F93AF93BF93EF9369
:10171000FF93E0916300F09164000995FF91EF91D0
:10172000BF91AF919F918F917F916F915F914F91F9
:0E1730003F912F910F900FBE0F901F901895B4
:10173E009B01AC018EB588608EBD8EB582608EBD6C
:10174E0089B7806189BF60E070E081EE99E40E9404
:10175E00090E20E030E040E85FE30E94DB0D0E94BE
:10176E00C10A70939D0460939C0480919C04909197
:08177E009D049BBD8ABD089586
:1017860080919A0490919B04992324F488B38160F4
:1017960088BB03C088B38E7F88BB80919A049091E2
:1017A6009B04880F991F90939B0480939A048091C1
:1017B600A00481508093A00486EB9DE09093990449
:0617C600809398040895D1
:1017CC00CF92DF92EF926A01E62EDC0121153105F2
:1017DC00B1F0F6014491E7FC40814C93442341F075
:1017EC00215031094FEFC41AD40AE40A1196EECFF6
:1017FC002A0F3B1F2A173B0711F01D92FBCFEF90CE
:06180C00DF90CF9008956B
:1018120057FD9058440F551F59F05F3F71F047959F
:10182200880F97FB991F61F09F3F79F08795089584
:10183200121613061406551FF2CF4695F1DF08C0A3
:10184200161617061806991FF1CF869571056105C0
:041852000894089559
:1018560088B38B7F88BB80918004E82FF0E0EE0F81
:10186600FF1FEA57FB4F2081318130939B04209361
:101876009A048F5F8093800480E18093A00483ECB8
:0C1886009BE090939904809398040895CF
:1018920097FB10F8169400080F93083098F0085040
:1018A200232F342F452F562F672F782F892F902DD6
:1018B200F4CF0594979587957795679557954795B2
:0C18C200379527950A95AAF70F91089515
:1018CE002F923F924F925F926F927F928F929F9242
:1018DE00AF92BF92CF92DF92EF92FF920F931F9330
:1018EE00CF93DF93CDB7DEB7CA1BDB0B0FB6F894E1
:0818FE00DEBF0FBECDBF09944F
:10190600282F257530E0220F331F86958575282BE5
:10191600822F837390E0880F991F880F991F269551
:1019260026952373282B30E1239FC001112422958D
:061936002F70822B0895C2
:10193C00CF92DF92EF926B01E82EA82FCB014115CD
:10194C00510531F48C199D09EF90DF90CF900895DB
:10195C00FC012491A7FD20812223A1F30196A11D56
:06196C0041505109ECCFCF
:101972002A88398848885F846E847D848C849B841D
:10198200AA84B984C884DF80EE80FD800C811B812B
:10199200AA81B981CE0FD11D0FB6F894DEBF0FBE5A
:0619A200CDBFED01089528
:1019A80080916100882314F00E94F70D80916100F6
:1019B800880F80936100809168008F5F8093680032
:1019C800883030F08EE19BE0909364008093630050
:0219D800089570
:1019DA0087B3846087BB87B3816087BB87B3826024
:1019EA0087BB88B3846088BB88B3826088BB88B3AE
:1019FA00816088BB83E19EE0909399048093980468
:021A0A0008953D
:101A0C000F93083090F0982F872F762F652F542F37
:101A1C00432F322F22270850F4CF220F331F441F9D
:101A2C00551F661F771F881F991F0A95B2F70F91D4
:021A3C0008950B
:101A3E00CF92DF92EF92DC016A01E62E280F391F5A
:101A4E00A217B30751F0F6014491E7FC40814D9384
:101A5E004FEFC41AD40AE40AF3CFEF90DF90CF9081
:021A6E000895D9
:101A700088B3846088BB909180048091810498171A
:101A800038F083E19EE09093990480939804089540
:0E1A90008BE29CE09093990480939804089553
:101A9E00CF92DF92EF926B01E82EA82FCB01FC01C3
:101AAE002491A7FD2081222319F00196A11DF7CFC5
:0C1ABE008C199D09EF90DF90CF900895E7
:101ACA0088B3826088BB8091A004811107C088E333
:101ADA009DE09093990480939804089583EC9BE089
:0A1AEA0090939904809398040895E6
:101AF40088B3846088BB88B3826088BB88B3816004
:101B040088BB109280048BE29CE0909399048093AC
:041B14009804089594
:101B1800092E0394000C11F4882352F0BB0F40F4F3
:101B2800BF2B11F460FF04C06F5F7F4F8F4F9F4F33
:021B380008950E
:101B3A00689401C0E8948F929F92CF93DF930E949A
:0C1B4A003D09DF91CF919F908F9008958E
:101B5600A89581E0209163003091640022513E40B7
:061B660009F480E008957F
:101B6C0088B38D7F88BB85E69DE090939904809324
:041B7C00980408952C
:101B800081E0209198043091990423513E4009F45A
:041B900080E0089554
:101B9400109280048AE79DE09093990480939804BE
:021BA4000895A2
:101BA60057FD03C0659175910895619171910895EE
:0E1BB6005058BB27AA270E9421080C948C0DC2
:0E1BC40000240A94161617061806090608953E
:0E1BD20000240A941216130614060506089540
:0E1BE000E894BB2766277727CB0197F9089575
:0C1BEE00E0919604F09197040995089589
:0C1BFA00E0919804F09199040995089579
:0C1C060097F99F6780E870E060E00895A7
:081C12000E94B2070C948C0D36
:061C1A009FEF80EC08952D
:041C20000C94000020
:021C2400089521
:021C260008951F
:021C28003C0777
:021C2A00130E97
:011C2C0010A7
:00000001FF
