:100000000C9436000C9488060C9488060C94880690
:100010000C9488060C9488060C9488060C94AE0404
:100020000C9488060C9481040C9488060C94880621
:100030000C9488060C9488060C9488060C94880608
:100040000C9488060C9488060C9488060C948806F8
:100050000C9488060060017F80017F0183000D18E9
:1000600001830189800189018A00013111241FBEA9
:10007000CFE5D8E0DEBFCDBFE4E5F0E040E017C05B
:10008000B591A59135912591059107FD0CC09591EC
:100090008591EF01F92FE82F05900D92A217B30774
:1000A000D9F7FE0104C01D92A217B307E1F7EC36A1
:1000B000F40731F70E94AB030C945E00F894FFCF75
:1000C00080000000000000000000000000000000B0
:1000D000007E7E7E7E7E7E7E7E7E7E7E7E7E7E7EBE
:1000E0007E7E7E7E7E7E7E7E7E7E7E7E7E7E7E7E30
:1000F0007E7E7E4565150202020739796141191934
:1001000086C00F2A16A6048EAE96C6D604464EF6B4
:10011000EE760466F61E0456AEB60ECE04F66EA655
:100120004E042E16A60436865E9E0426F6E6A273BC
:010130007E50
:0101310010BD
:100132002F923F924F925F926F927F928F929F92F5
:10014200AF92BF92CF92DF92EF92FF920F931F93E3
:10015200CF93DF93CDB7DEB7E0970FB6F894DEBF4B
:100162000FBECDBF3A2C4B2C5C2C6D2C7E2C8F2CD1
:10017200902E212E0CE10E94AC056894AA24A6F8C8
:100182000F2EF8E7BF2EF02D0F2EFDE7CF2EF02D0C
:10019200DD24D394E12CF12C00E010E00E9416063D
:1001A20029833A834B835C836D837E838F83988715
:1001B200232D342D452D562D672D782D892D922DE9
:1001C2000CE10E94AC0500E00E94160629873A87DE
:1001D2004B875C876D877E878F87988B99818A8111
:1001E2002B812C812D812E812F8128858F73806414
:1001F200998B8A8B1B8A1C8A1D8A1E8A1F8A188EDB
:1002020029813A814B815C816D817E818F819885C4
:100212000EE00E945E053F733064298F3A8F1B8E79
:100222001C8E1D8E1E8E1F8E18A299858A852B8587
:100232002C852D852E852F8528898F73806899A31B
:100242008AA31BA21CA21DA21EA21FA218A6298558
:100252003A854B855C856D857E858F8598890E9460
:100262005E053F73306829A73AA71BA61CA61DA6E8
:100272001EA61FA618AAEFE6F1E080E091E29183A4
:10028200808339892A898B898C898D898E898F8986
:10029200888D32832383398D2A8D8B8D8C8D8D8D24
:1002A2008E8D8F8D88A13483258339A12AA18BA1BC
:1002B2008CA18DA18EA18FA188A53683278339A514
:1002C2002AA58BA58CA58DA58EA58FA588A930877B
:1002D200218780E090EC9387828780E090EE95877B
:1002E200848780E090E29787868788E080936A011E
:1002F200E0960FB6F894DEBF0FBECDBFDF91CF916F
:100302001F910F91FF90EF90DF90CF90BF90AF9031
:100312009F908F907F906F905F904F903F902F9023
:0203220008953C
:1003240088B38B7F88BB88B38E7F88BB88B38D7F6F
:1003340088BB88B3826088BB88B38D7F88BB88B351
:10034400826088BB88B38D7F88BB88B3826088BB9A
:1003540088B38D7F88BB88B3826088BB88B3816093
:1003640088BB88B38D7F88BB88B3826088BB88B321
:100374008E7F88BB88B38D7F88BB88B3826088BB3F
:1003840088B38D7F88BB88B3826088BB88B38D7F38
:1003940088BB88B3826088BB88B38D7F88BB88B3F1
:1003A400826088BB88B38D7F88BB88B3826088BB3A
:1003B40088B38D7F88BB88B3826088BB88B38D7F08
:1003C40088BB88B3826088BB88B38D7F88BB88B3C1
:1003D400826088BB88B38D7F88BB88B3826088BB0A
:1003E40088B38D7F88BB88B3826088BB88B38D7FD8
:1003F40088BB88B3826088BB88B3846088BB82B3BF
:100404008F7D82BB82B3806482BB8EE092E0909346
:08041400800180937F0108952F
:10041C0088B38B7F88BB88B38E7F88BB88B38D7F76
:10042C0088BB88B3826088BB88B38D7F88BB88B358
:10043C00826088BB88B38D7F88BB88B3826088BBA1
:10044C0088B38D7F88BB88B3826088BB88B38D7F6F
:10045C0088BB88B3826088BB88B38D7F88BB88B328
:10046C00826088BB88B38D7F88BB88B3826088BB71
:10047C0088B38D7F88BB88B3826088BB88B38D7F3F
:10048C0088BB88B3826088BB88B38D7F88BB88B3F8
:10049C00826088BB88B38D7F88BB88B3826088BB41
:1004AC0088B38D7F88BB88B3826088BB88B38D7F0F
:1004BC0088BB88B3826088BB88B38D7F88BB88B3C8
:1004CC00826088BB88B38D7F88BB88B3826088BB11
:1004DC0088B38D7F88BB88B3826088BB88B3846007
:1004EC0088BB82B38F7B82BB82B3806282BB82E982
:0C04FC0091E09093800180937F010895AF
:1005080010C00E94610658F00E945A0640F029F473
:100518005F3F29F00C947B0651110C9469060C94EA
:1005280085060E941C0568F39923B1F3552391F3BE
:10053800951B550BBB27AA2762177307840738F04A
:100548009F5F5F4F220F331F441FAA1FA9F335D0A7
:100558000E2E3AF0E0E832D091505040E695001C5B
:10056800CAF72BD0FE2F29D0660F771F881FBB1F15
:10057800261737074807AB07B0E809F0BB0B802DF3
:10058800BF01FF2793585F4F3AF09E3F510578F01F
:100598000C947B060C9469065F3FE4F3983ED4F311
:1005A800869577956795B795F7959F5FC9F7880FF3
:1005B800911D9695879597F90895E1E0660F771F45
:1005C800881FBB1F621773078407BA0720F0621BD6
:0E05D800730B840BBA0BEE1F88F7E0950895A5
:1005E60011C00E945A0638F00E94610620F039F4C4
:1005F6009F3F19F426F40C9485060EF4E095E7FB6C
:100606000C947B06E92F0E941C0558F3BA17620763
:1006160073078407950720F079F4A6F50C9468060D
:100626000EF4E0950B2EBA2FA02D0B01B901900107
:100636000C01CA01A0011124FF27591B99F0593F4B
:1006460050F4503E68F11A16F040A22F232F342F93
:100656004427585FF3CF469537952795A795F040E1
:100666005395C9F77EF41F16BA0B620B730B840BF6
:10067600BAF09150A1F0FF0FBB1F661F771F881FAE
:10068600C2F70EC0BA0F621F731F841F48F4879506
:1006960077956795B795F7959E3F08F0B0CF9395F8
:0E06A600880F08F09927EE0F97958795089515
:1006B40088249924F401E401B0E49F93AA279A15AD
:1006C4008B049C04ED05FE05CF05D007A10798F423
:1006D400AD2FDC2FCF2FFE2FE92D982C892E982FAC
:1006E400872F762F652F542F432F322F2227B85070
:1006F40031F7BF9127C01B2EBF91BB27220F331F99
:10070400441F551F661F771F881F991F881C991C3B
:10071400EE1FFF1FCC1FDD1FAA1FBB1F8A149B04E3
:10072400EC05FD05CE05DF05A007B10748F08A18E2
:100734009B08EC09FD09CE09DF09A00BB10B216070
:100744001A94E1F62EF49401AF01BE01CD01000C20
:02075400089506
:100756009FE088E10FB6F894A89581BD0FBE91BDC4
:1007660081B3806181BB82B3806182BB81B38062C9
:1007760081BB81B3806481BBF89460E070E086E958
:1007860094E40E94D5040E9493050F2EF0EFAF2E3D
:10079600F02D0F2EFDEABF2EF02D0F2EF8E9CF2EED
:1007A600F02DD12CE12CF12C00E010E028E03AEA03
:1007B60048E950E060E070E080E090E00E94990037
:1007C6000E944A0602C00E9475060E9437068111E1
:1007D600FACF0E94410641E760EC70E080E00E949B
:0407E600F503F9CF4F
:1007EA00CF92DF92EF926B01E82E80E00FC0282FA4
:1007FA0030E0F6019491E7FC9081F901E759FF4F47
:10080A0090838F5F9FEFC91AD90AE90A841778F390
:10081A00E82FF0E0E759FF4F10821092600084E55C
:10082A0094E0909364008093630040936600789408
:10083A000E9422068111FCCFEF90DF90CF9008959D
:10084A000E94240588F09F5798F0B92F9927B7512D
:10085A00B0F0E1F0660F771F881F991F1AF0BA955A
:10086A00C9F714C0B13091F00E946806B1E008954A
:10087A000C946806672F782F8827B85F39F0B93F3C
:10088A00CCF3869577956795B395D9F73EF490950D
:0E089A008095709561957F4F8F4F9F4F089509
:1008A80080916600811107C08AE896E09093640001
:1008B800809363000895815080936600E091600002
:1008C80081E08E0F80936000F0E0E759FF4F808150
:1008D80080936100882314F00E946F068091610064
:1008E800880F8093610081E0809368008AE795E033
:0A08F800909364008093630008955C
:100902001F920F920FB60F9211242F933F934F9382
:100912005F936F937F938F939F93AF93BF93EF9365
:10092200FF9380918701909188019DBD8CBDE091DC
:100932006300F09164000995FF91EF91BF91AF912F
:100942009F918F917F916F915F914F913F912F91E5
:0A0952000F900FBE0F901F90189534
:10095C001F920F920FB60F9211242F933F934F9328
:10096C005F936F937F938F939F93AF93BF93EF930B
:10097C00FF93E0916300F09164000995FF91EF9172
:10098C00BF91AF919F918F917F916F915F914F919B
:0E099C003F912F910F900FBE0F901F90189556
:1009AA009B01AC018EB588608EBD8EB582608EBD0E
:1009BA0089B7806189BF60E070E081EE99E40E94A6
:1009CA00810620E030E040E85FE30E9453060E947F
:1009DA002504709386016093850180918501909129
:0809EA0086019BBD8ABD089542
:1009F2008091830190918401992324F488B38160CA
:100A020088BB03C088B38E7F88BB8091830190919D
:100A12008401880F991F90938401809383018091B0
:100A220089018150809389018DE296E09093820141
:060A32008093810108958C
:100A380057FD9058440F551F59F05F3F71F0479587
:100A4800880F97FB991F61F09F3F79F0879508956C
:100A5800121613061406551FF2CF4695F1DF08C08B
:100A6800161617061806991FF1CF869571056105A8
:040A78000894089541
:100A7C0088B38B7F88BB80916901E82FF0E0EE0F83
:100A8C00FF1FE159FE4F2081318130938401209367
:100A9C0083018F5F8093690180E18093890189EFE5
:0C0AAC0094E090938201809381010895F2
:100AB80097FB10F8169400080F93083098F0085028
:100AC800232F342F452F562F672F782F892F902DBE
:100AD800F4CF05949795879577956795579547959A
:0C0AE800379527950A95AAF70F910895FD
:100AF40080916100882314F00E946F068091610048
:100B0400880F80936100809168008F5F80936800F4
:100B1400883030F084E594E090936400809363001F
:020B2400089532
:100B260087B3846087BB87B3816087BB87B38260E6
:100B360087BB88B3846088BB88B3826088BB88B370
:100B4600816088BB8BE896E0909382018093810157
:020B5600089500
:100B58000F93083090F0982F872F762F652F542FFA
:100B6800432F322F22270850F4CF220F331F441F60
:100B7800551F661F771F881F991F0A95B2F70F9197
:020B88000895CE
:100B8A0088B3846088BB9091690180916A01981743
:100B9A0038F08BE896E09093820180938101089562
:0E0BAA008EE395E0909382018093810108957F
:100BB80088B3826088BB80918901811107C085EC68
:100BC80095E09093820180938101089589EF94E0E4
:0A0BD800909382018093810108953B
:100BE20088B3846088BB88B3826088BB88B3816025
:100BF20088BB109269018EE395E090938201809305
:040C020081010895CF
:100C0600092E0394000C11F4882352F0BB0F40F414
:100C1600BF2B11F460FF04C06F5F7F4F8F4F9F4F54
:020C260008952F
:100C2800689401C0E8948F929F92CF93DF930E94BB
:0C0C38005A03DF91CF919F908F90089598
:100C4400A89581E020916300309164002A583640D1
:060C540009F480E00895A0
:100C5A0088B38D7F88BB8CED95E090938201809359
:040C6A008101089567
:100C6E0081E020918101309182012B58364009F4A8
:040C7E0080E0089575
:100C8200109262008AE896E0909364008093630079
:020C92000895C3
:100C94001092690181EF95E0909382018093810124
:020CA4000895B1
:0E0CA6005058BB27AA270E94F3020C940306A5
:0E0CB40000240A94161617061806090608955D
:0E0CC20000240A94121613061406050608955F
:0E0CD000E894BB2766277727CB0197F9089594
:0C0CDE00E0917F01F091800109950895DC
:0C0CEA00E0918101F091820109950895CC
:0C0CF60097F99F6780E870E060E00895C7
:080D02000E9484020C94030618
:060D0A009FEF80EC08954C
:040D10000C9400003F
:020D1400089540
:020D160008953E
:020D18000E02C9
:020D1A008B0646
:00000001FF
